:100000000C94B2010C94DA010C94DA010C94DA012C
:100010000C94DA010C94DA010C94DA010C94DA01F4
:100020000C94DA010C94DA010C948C0F0C941310DC
:100030000C94DA010C94DA010C94DA010C94DA01D4
:100040000C94DA010C94DC130C94DA010C94DA01B0
:100050000C94DA010C94DA010C94DA010C94751109
:100060000C94DA010C94DA010C94DA010C94DA01A4
:100070000C94DA010C94DA010C94DA010C94DA0194
:100080000C94DA010C94DA010C94DA010C94DA0184
:100090000C94E9270C94DA010C94DA010C94DA013F
:1000A0000C94DA010C94DA010C94DA01084AD73B7B
:1000B0003BCE016E84BCBFFDC12F3D6C74319ABD37
:1000C00056833DDA3D00C77F11BED9E4BB4C3E915B
:1000D0006BAAAABE000000803F05A84CCDB2D44E4A
:1000E000B93836A9020C50B9918688083CA6AAAA4C
:1000F0002ABE000000803F080B0002020201000936
:100100000400000102020000052400100105240182
:1001100001010424020605240600010705810310DD
:10012000004009040100020A000000070502024025
:100130000000070583024000000403090422035560
:100140000053004200200049004F00200042006F91
:1001500000610072006400200020002000200018D0
:1001600003410072006400750069006E006F00209A
:10017000004C004C0043001201000200000040410E
:100180002339800001010200011201000202000077
:10019000404123398000010102000100C18081C17A
:1001A0004F6F6F70732C206E6F204C534D33303374
:1001B000206465746563746564202E2E2E20436868
:1001C00065636B20796F757220776972696E67213C
:1001D0000A0D0005010902A1010901A1008501051F
:1001E000091901290315002501950375018102955F
:1001F000017505810305010930093109381581258B
:100200007F750895038106C0C005010906A1018517
:1002100002050719E029E7150025017501950881F8
:100220000295017508810395067508150025650579
:1002300007190029658100C00904020001030000BC
:100240000009210101000122650007058403400027
:100250000100000000000000002A2B280000000020
:10026000000000000000000000000000000000008E
:10027000002C9EB4A0A1A2A434A6A7A5AE362D370B
:1002800038271E1F20212223242526B333B62EB75C
:10029000B89F8485868788898A8B8C8D8E8F909174
:1002A00092939495969798999A9B9C9D2F3130A301
:1002B000AD350405060708090A0B0C0D0E0F1011C9
:1002C00012131415161718191A1B1C1DAFB1B0B54F
:1002D0000000000000240027002A002D003000004C
:1002E000000000250028002B002E00310000000037
:1002F000002300260029002C002F0004040404041D
:1003000003040502020202040302020202060606B8
:1003100006060604040202020404080201104080DA
:1003200040102040804080080204018040201002DC
:10033000011080102040400000000200080E000064
:10034000030401000B00000000070605040100087B
:100350000A0B0C0D09006803FD0AC80E6E15CE17B6
:10036000891C852611241FBECFEFDAE0DEBFCDBF8A
:1003700014E0A0E0B1E0EAE0FBE502C005900D92D8
:10038000A033B107D9F71BE0A0E3B4E001C01D9290
:10039000A032B107E1F713E0C4E6D3E004C022972E
:1003A000FE010E947F2DC635D107C9F70E945C115E
:1003B0000C94832D0C940000CF93DF93BC0182300A
:1003C000910510F462E070E0A0911E0BB0911F0B3C
:1003D000ED01E0E0F0E040E050E021C0888199814B
:1003E0008617970769F48A819B81309719F0938368
:1003F000828304C090931F0B80931E0BFE0134C0B8
:100400006817790738F44115510519F084179507D5
:1004100008F4AC01FE018A819B819C01E9012097CF
:10042000E9F641155105A9F1CA01861B970B0497FE
:1004300008F4BA01E0E0F0E02AC08D919C91119798
:1004400084179507F9F46417750781F412968D9156
:100450009C911397309719F09383828304C09093F3
:100460001F0B80931E0BFD0132964CC0CA01861BE8
:10047000970BFD01E80FF91F6193719302978D931C
:100480009C9340C0FD01828193819C01D90110970A
:10049000A1F680911C0B90911D0B892B41F480914A
:1004A000A0029091A10290931D0B80931C0B409190
:1004B000A2025091A3024115510541F44DB75EB718
:1004C00080919E0290919F02481B590B20911C0B1A
:1004D00030911D0BCA01821B930B8617970780F082
:1004E000AB014E5F5F4F8417950750F0420F531FCB
:1004F00050931D0B40931C0BF9016193719302C043
:10050000E0E0F0E0CF01DF91CF910895CF93DF934A
:10051000009709F450C0EC0122971B821A82A09127
:100520001E0BB0911F0B109709F140E050E0AC1783
:10053000BD0708F1BB83AA83FE0121913191E20F2F
:10054000F31FAE17BF0779F48D919C911197280F77
:10055000391F2E5F3F4F3983288312968D919C91CE
:1005600013979B838A834115510571F4D0931F0B18
:10057000C0931E0B20C012968D919C911397AD01D4
:10058000009711F0DC01D3CFFA01D383C28321910C
:100590003191E20FF31FCE17DF0769F4888199814B
:1005A000280F391F2E5F3F4FFA01318320838A8144
:1005B0009B8193838283DF91CF910895FB01DC01BE
:1005C00002C001900D9241505040D8F70895DC01CF
:1005D00001C06D9341505040E0F70895FB01DC01EC
:1005E0004150504048F001900D920020C9F701C0E1
:1005F0001D9241505040E0F70895FF920F931F93D2
:10060000CF93DF93EC01F02E8EEF8A832B836D83E3
:100610004E8380911A098C838F5F80931A09022F71
:1006200010E0F8013596DE0113966FEF7FEF2D9104
:100630002627822F8295807F822790E0382F2227DD
:10064000AC01440F551F440F551F440F551F24275D
:100650003527672F77276227732724E0959587959D
:100660002A95E1F768277927319709F72F2D262753
:10067000822F8295807F822790E0382F2227AC013D
:10068000E3E0440F551FEA95E1F724273527472F6C
:1006900055272427352744E0959587954A95E1F716
:1006A00028273927DE0118968B81FD01E80FF11DFF
:1006B00020838B81A80FB11D11963C939801285F70
:1006C0003F4FC901DF91CF911F910F91FF90089586
:1006D000AF92BF92CF92DF92EF92FF920F931F9350
:1006E00088E394E00E94001383E594E00E940013E5
:1006F0008EE694E00E94001300D000D000D0E0907D
:10070000A402F090A5020091A6021091A702A09069
:10071000A802B090A902C090AA02D090AB0280912A
:10072000AC029091AD02A091AE02B091AF02EDB7D4
:10073000FEB781839283A383B48381E090E09683A4
:10074000858385E994E06DE874E041E954E029E8A7
:1007500034E00E94BA1B8DB79EB706960FB6F89488
:100760009EBF0FBE8DBF1F910F91FF90EF90DF9046
:10077000CF90BF90AF90089588E394E00E94061751
:1007800083E594E00E9406178EE694E00E94061727
:100790000895EF92FF920F931F93CF93DF930E94E0
:1007A0004E180E94821788E394E00E94F3167C01A1
:1007B00083E594E00E94F316EC018EE694E00E943B
:1007C000F3168C018091CE04813029F088E394E007
:1007D000B7010E94CA1683E594E0BE010E94CA16C2
:1007E0008EE694E0B8010E94CA16DF91CF911F9166
:1007F0000F91FF90EF900895EF92FF920F931F9348
:10080000CF93DF938091CE04813009F06DC0C09109
:10081000CF04D091D004E090D104F090D2048E01A6
:100820000E191F09C8018C549F4F89569140D8F06A
:10083000053B11059CF0C856D140BE01882777FDC5
:100840008095982FC859DE4F0E94012B6093890430
:1008500070938A0480938B0490938C040C541F4FE4
:100860008CF4C859DE4FBE01882777FD8095982FFC
:100870000E94012B6093890470938A0480938B04F7
:1008800090938C04B701882777FD8095982F0E945C
:10089000012B60938D0470938E0480938F0490934A
:1008A000900485E994E00E949C1A88E394E00E94F9
:1008B000E316AA2797FDA095BA2FBC01CD010E948F
:1008C000012B209191043091920440919304509116
:1008D00094040E9498290E94D32A9B01AC0188E3CA
:1008E00094E0B9010E94CA16DF91CF911F910F9138
:1008F000FF90EF9008958091CE04813011F40E9412
:10090000FC03089585E994E061E070E00E94481AD4
:1009100008958F929F92AF92BF92CF92DF92FF92F3
:100920000F931F93CF93DF93F62E4901082F10E00A
:100930006801CC0CDD1C5601A00EB11EE501CC0FE8
:10094000DD1FCC0FDD1FCD5ED64F18828B819C81C1
:100950008430910509F478C0853091055CF48230CB
:10096000910509F443C0833091050CF0ABC0992385
:10097000C4F43CC28730910509F42FC18830910539
:1009800044F48530910509F4CAC0069709F02EC2D7
:10099000F3C08830910509F466C1099709F026C2B1
:1009A000D3C18EEF681709F021C282E090E09C83EA
:1009B0008B8380E191E0089FD001099FB00D189FC3
:1009C000B00D1124AD52BB4F13961C92139788E8BB
:1009D00090E0089FF001099FF00D189FF00D112481
:1009E000EE0FFF1FEB52FB4F608390C180E191E05F
:1009F000089FF001099FF00D189FF00D1124ED5292
:100A0000FB4F63831D8280818627282F2295207FBC
:100A1000282730E0522F4427C90163E0880F991F2F
:100A20006A95E1F748275927818190E0482759279F
:100A3000B4E035952795BA95E1F7422753275183BE
:100A4000408384E090E03BC084E490E0089FF001A4
:100A5000099FF00D189FF00D1124EE0FFF1FEE0FF0
:100A6000FF1FE952FB4F608380E191E0089FF00196
:100A7000099FF00D189FF00D1124ED52FB4F80815E
:100A80008627282F2295207F282730E0522F4427C1
:100A9000C90163E0880F991F6A95E1F74827592734
:100AA000818190E04827592794E0359527959A95BC
:100AB000E1F7422753275183408383E090E09C83F2
:100AC0008B8394C180E191E0089FF001099FF00DB4
:100AD000189FF00D1124ED52FB4F6583808186270E
:100AE000282F2295207F282730E0522F4427C90144
:100AF000B3E0880F991FBA95E1F7482759278181FC
:100B000090E048275927A4E035952795AA95E1F765
:100B1000422753275183408385E090E0D0CF80E186
:100B200091E0089FF001099FF00D189FF00D11242E
:100B3000ED52FB4F668380818627282F2295207FE8
:100B4000282730E0522F4427C90163E0880F991FFE
:100B50006A95E1F748275927818190E0482759276E
:100B6000B4E035952795BA95E1F74227532751838D
:100B7000408386E090E0A3CF80E191E0089FF00100
:100B8000099FF00D189FF00D1124ED52FB4F678364
:100B900080818627282F2295207F282730E0522F1A
:100BA0004427C90173E0880F991F7A95E1F7482718
:100BB0005927818190E04827592764E0359527958A
:100BC0006A95E1F742275327518340838381882325
:100BD00009F446C087E090E072CF6D81F80125E00E
:100BE000EE0FFF1F2A95E1F7EC0DFD1D319693E006
:100BF000EE0FFF1F9A95E1F7E60FF11DED52FB4F47
:100C0000F0826F5F6D8380E191E0089FF001099FA2
:100C1000F00D189FF00D1124ED52FB4F80818F25B0
:100C2000282F2295207F282730E0522F4427C90102
:100C3000B3E0880F991FBA95E1F7482759278181BA
:100C400090E048275927A4E035952795AA95E1F724
:100C500042275327518340838381681709F0C6C018
:100C600088E090E02CCF80E191E0089FD001099FBF
:100C7000B00D189FB00D1124AD52BB4F9C9117962B
:100C8000EC911797F0E0EE53FD4F80818927482FB4
:100C90004295407F482750E0342F2227CA0173E055
:100CA000880F991F7A95E1F72827392711968C919B
:100CB000119790E02827392764E0559547956A9564
:100CC000E1F72427352711963C932E938F2D90E042
:100CD000307082179307F9F0F501EE0FFF1FEE0F4A
:100CE000FF1FEB5EF64F80818F5F8083188281E06B
:100CF00090E09C838B83EEEFFE1609F077C082E0D4
:100D000090E09C838B8313961C9213978FEF9FEF39
:100D10008D939C936BC089E090E09C838B83F8015A
:100D200095E0EE0FFF1F9A95E1F7EC0DFD1D319652
:100D300083E0EE0FFF1F8A95E1F78D81E80FF11D2B
:100D4000ED52FB4FF08252C0262F30E080E191E05F
:100D5000089FB001099F700D189F700D11246D52EE
:100D60007B4FFB01818190E028173907E9F0F501FD
:100D7000EE0FFF1FEE0FFF1FEB5EF64F80818F5FC0
:100D80008083188281E090E09C838B83FEEFFF16C6
:100D900069F582E090E09C838B83EB011B828FEFEF
:100DA0009FEF9983888322C081E0888381E090E06F
:100DB0009C838B83F801A5E0EE0FFF1FAA95E1F756
:100DC000EC0DFD1D319633E0EE0FFF1F3A95E1F774
:100DD0008D81E80FF11DEC52FB4FF082DA01FB012F
:100DE00080E191E001900D920197E1F7D801AA0FFF
:100DF000BB1FA00FB11FAA0FBB1FAA0FBB1FAD5E69
:100E0000B64F8C91813069F584E490E0089FF00141
:100E1000099FF00D189FF00D1124EE0FFF1FEE0F2C
:100E2000FF1FE952FB4F808116968C9316971896F8
:100E30008D919C911997892B21F41B961C921E92DF
:100E40001A97F801EE0FFF1FE00FF11FEE0FFF1FC3
:100E5000EE0FFF1FED5EF64F80859185019691871D
:100E60008087F801EE0FFF1FE00FF11FEE0FFF1F4D
:100E7000EE0FFF1FDF01AD5EB64F16968C911697F1
:100E80008F5FE4018E8318968D919C9119979987B5
:100E90008887EB5EF64F80818A871B8610828C9153
:100EA000DF91CF911F910F91FF90DF90CF90BF9076
:100EB000AF909F908F900895EF92FF920F931F93A2
:100EC000DF93CF93CDB7DEB7CC51D1400FB6F894B6
:100ED000DEBF0FBECDBF3DE0E32EF12CEC0EFD1EBC
:100EE0008E010F5F1F4F0AC082EB99E00E94D01263
:100EF000682F80E0A70198010E94890482EB99E0A5
:100F00000E94BA12181619067CF3C45EDE4F0FB6A3
:100F1000F894DEBF0FBECDBFCF91DF911F910F912F
:100F2000FF90EF9008952F923F924F925F926F92B1
:100F30007F928F929F92AF92BF92CF92DF92EF9269
:100F4000FF920F931F93DF93CF93CDB7DEB7C553B7
:100F5000D2400FB6F894DEBF0FBECDBF88E394E059
:100F60000E94EF166C0188E394E00E94E716CC5CC7
:100F7000DD4F99838883C453D24083E594E00E9477
:100F8000EF164C0183E594E00E94E716CE5CDD4F3E
:100F900099838883C253D2408EE694E00E94EF1674
:100FA0003C018EE694E00E94E716C05DDD4F998318
:100FB0008883C053D24000913B0410913C0488E3E5
:100FC00094E00E94E7162C01E0905604F09057043C
:100FD00083E594E00E94E7161C01A0907104B09094
:100FE00072048EE694E00E94E716C25DDD4F99839D
:100FF0008883CE52D2400E94BD1169837A838B834D
:101000009C83CC5CDD4F88819981C453D240C81A3F
:10101000D90A80E29EE4B6010E94342D0419150914
:10102000609FC001619F900D709F900D11248051B1
:1010300097429E838D83CE5CDD4FE881F981C25358
:10104000D2408E1A9F0A80E29EE4B4010E94342DA1
:10105000E218F3086E9DC0016F9D900D7E9D900D6E
:1010600011248051974298878F832FEF3FEF3A8763
:1010700029873C872B87C05DDD4F88819981C053CC
:10108000D240681A790A80E29EE4B3010E94342DAE
:10109000C25DDD4FE881F981CE52D240AE1ABF0A5F
:1010A0006A9DC0016B9D900D7A9D900D1124805119
:1010B00097429E878D87388B2F873A8B298B3C8B65
:1010C0002B8B81E08D8B8FEF8E8BDE01AA5DBE4F67
:1010D000FE01319686E101900D928150E1F74EE1DB
:1010E000E42E41E0F42EEC0EFD1E82E2F701878330
:1010F000C70164E648EC26E10DEE0E94FD028E0178
:10110000095E1F4FF701238130E0285F3F4FA701A1
:101110004E5F5F4FC801BA01A9010E94DE02F701CC
:10112000438150E0485F5F4F82EB99E0B8010E9435
:10113000C80BCB5CDD4F0FB6F894DEBF0FBECDBF42
:10114000CF91DF911F910F91FF90EF90DF90CF90A3
:10115000BF90AF909F908F907F906F905F904F90D7
:101160003F902F900895EF92FF920F931F93DF937C
:10117000CF93CDB7DEB7C052D2400FB6F894DEBFE2
:101180000FBECDBF8091CE04813031F020E480E4E9
:1011900090E0A0E0B0E005C028E088E090E0A0E0AA
:1011A000B0E089839A83AB83BC831D821E822F8328
:1011B00084E0888783E08987DE01A75EBE4FFE0159
:1011C000319689E001900D928150E1F751E1E52ED1
:1011D00051E0F52EEC0EFD1EF7011782C70164E603
:1011E00048EC29E002E30E94FD028E01065F1F4FDA
:1011F000F701238130E0285F3F4FA7014E5F5F4F2B
:10120000C801BA01A9010E94DE02F701438150E042
:10121000485F5F4F82EB99E0B8010E94C80BC05E47
:10122000DD4F0FB6F894DEBF0FBECDBFCF91DF917B
:101230001F910F91FF90EF900895AF92BF92CF92C0
:10124000DF92EF92FF920F931F93DF93CF93CDB76F
:10125000DEB7CC52D2400FB6F894DEBF0FBECDBF82
:101260000E94BD117B018C0188E394E00E94EB1683
:101270005C0183E594E00E94EB166C018EE694E03D
:101280000E94EB16E982FA820B831C83BE82AD8238
:10129000D886CF822FEF3FEF3A8729873C872B876D
:1012A0009E878D87388B2F873A8B298B3C8B2B8B96
:1012B00081E08D8BDE01AB5DBE4FFE01319685E195
:1012C00001900D928150E1F76DE1E62E61E0F62E7E
:1012D000EC0EFD1E84E2F7018783C70164E648EC4B
:1012E00025E10EED0E94FD028E010A5E1F4FF701FF
:1012F000238130E0285F3F4FA7014E5F5F4FC80159
:10130000BA01A9010E94DE02F701438150E0485F63
:101310005F4F82EB99E0B8010E94C80BC45DDD4FBE
:101320000FB6F894DEBF0FBECDBFCF91DF911F91F6
:101330000F91FF90EF90DF90CF90BF90AF90089506
:101340006F927F928F929F92AF92BF92CF92DF92D5
:10135000EF92FF920F931F93DF93CF93CDB7DEB73A
:10136000C353D2400FB6F894DEBF0FBECDBF0E946C
:10137000BD113B014C01609143097091440980917A
:101380004509909146090E949A145B016C01609195
:101390004B0970914C0980914D0990914E099058DC
:1013A0000E949A147B018C01609147097091480951
:1013B0008091490990914A0990580E949A14698233
:1013C0007A828B829C82ED82FE820F8318876987E6
:1013D0007A878B879C87AD86BE86CF86D88A80E049
:1013E00090E0A0E0B0E0898B9A8BAB8BBC8B8D8BAF
:1013F0009E8BAF8BB88F898F9A8FAB8FBC8FDE019E
:10140000A45DBE4FFE0131968CE101900D9281509A
:10141000E1F774E2E72E71E0F72EEC0EFD1E8EE18F
:10142000F7018783C70164E648EC2CE107E20E94DC
:10143000FD028E01035E1F4FF701238130E0285F1C
:101440003F4FA7014E5F5F4FC801BA01A9010E943B
:10145000DE02F701438150E0485F5F4F82EB99E085
:10146000B8010E94C80BCD5CDD4F0FB6F894DEBF0B
:101470000FBECDBFCF91DF911F910F91FF90EF90E5
:10148000DF90CF90BF90AF909F908F907F906F90A4
:1014900008950E945C0783E499E00E943716882330
:1014A00051F089E599E00E94A11489E599E06CE288
:1014B0007CE40E94A81408950F931F930E944E1875
:1014C0000E94EA181092CE0485E994E040E050E0D2
:1014D0006AEF73EC00E010E02AEF33E40E94CC19CD
:1014E0008DE699E00E94C11688E394E065E041E052
:1014F0000E940C1783E594E066E042E00E940C171E
:101500008EE694E067E043E00E940C170E9482049C
:1015100002EB19E0C8016AE371E00E94180D83E450
:1015200099E064E10E94BF15C8016CE471E00E947B
:10153000180D89E599E062EC73E047E00E944F15D1
:10154000109230041092310410923204109233043D
:10155000109234041092350410923604109237041D
:101560001F910F9108952091AE093091AF0980919C
:10157000B0099091B109281B390B2F733070C90144
:1015800008952091AE093091AF098091B0099091F2
:10159000B1092817390719F42FEF3FEF09C0E0917F
:1015A000B009F091B109E259F64F8081282F30E05F
:1015B000C90108952091AE093091AF098091B00919
:1015C0009091B1092817390719F42FEF3FEF13C095
:1015D000E091B009F091B109E259F64F2081809174
:1015E000B0099091B10901968F7390709093B109F1
:1015F0008093B00930E0C90108951092B5091092A6
:10160000B40988EE93E0A0E0B0E08093B60990932F
:10161000B709A093B809B093B90980EF93E090930C
:10162000B3098093B20908950F931F93DF93CF936B
:101630000F92CDB7DEB78C0169838091B702882302
:1016400069F083E0BE016F5F7F4F41E050E00E9490
:10165000E70E1816190614F49C0107C081E090E00B
:10166000F8019383828320E030E0C9010F90CF918D
:10167000DF911F910F91089583E00E94BE0E08959F
:10168000CF93DF9312C082E00E94490E2FEF8F3F6D
:101690009207C9F0E091AE09F091AF09E259F64F17
:1016A0008083D093AF09C093AE09C091AE09D091A9
:1016B000AF092196CF73D0708091B0099091B10994
:1016C000C817D90701F7DF91CF910895FC018081F8
:1016D0008E5F808380E867EF70E042E450E00E9414
:1016E000620E0895FC0181819081913A59F4813212
:1016F00009F04CC080E060EB72E047E050E00E94EF
:10170000620E42C0913209F041C0803239F480EB60
:1017100092E067E070E00E94A60E36C0823209F0C7
:1017200035C082818093B7028091B0029091B1025E
:10173000A091B202B091B302805B9440A040B0404F
:1017400019F58091B70280FD12C087E797E7909363
:101750000108809300082BE088E190E00FB6F89430
:10176000A895809360000FBE209360000DC088E1B3
:101770000FB6F89480936000109260000FBEA89599
:10178000109201081092000881E0089580E0089509
:10179000CF92DF92EF92FF920F931F93CF93DF933D
:1017A0007C016B018A01C0E0D0E00FC0D6016D91D1
:1017B0006D01D701ED91FC910190F081E02DC70101
:1017C0000995C80FD91F015010400115110571F777
:1017D000CE01DF91CF911F910F91FF90EF90DF909D
:1017E000CF900895EF92FF920F931F93CF93DF93C3
:1017F0007C018B01C0E0D0E0F8010F5F1F4F6491C6
:10180000662359F0D701ED91FC910190F081E02D14
:10181000C7010995C80FD91FEFCFCE01DF91CF9136
:101820001F910F91FF90EF900895EF92FF920F9309
:101830001F938C01DC01ED91FC910190F081E02D72
:101840006DE009957C01D801ED91FC910190F0814A
:10185000E02DC8016AE009959C012E0D3F1DC901CC
:101860001F910F91FF90EF900895EF92FF920F93C9
:101870001F937C010E94F20B8C01C7010E94150C82
:101880009C01200F311FC9011F910F91FF90EF9014
:101890000895CF93DF93EC016115710519F420E0F1
:1018A00030E00FC0DB010D900020E9F71197A61B77
:1018B000B70BE881F9810280F381E02DAD01099534
:1018C0009C01C901DF91CF9108954F925F927F9261
:1018D0008F929F92AF92BF92CF92DF92EF92FF9240
:1018E0000F931F93DF93CF93CDB7DEB7A1970FB6BA
:1018F000F894DEBF0FBECDBF2C01742ECB01223079
:1019000008F42AE019A231E2C32ED12CCC0EDD1E40
:10191000822E9924AA24BB24672D752FA50194013A
:101920000E945B2D79018A01C801B701A5019401CC
:101930000E94092D472D461B0894C108D1084A3042
:1019400014F4405D01C0495CF6014083E114F104E8
:101950000105110521F07E2C5F2DC801DDCFC201EC
:10196000B6010E94490CA1960FB6F894DEBF0FBED7
:10197000CDBFCF91DF911F910F91FF90EF90DF903E
:10198000CF90BF90AF909F908F907F905F904F903F
:101990000895DC012115310541F4ED91FC91019090
:1019A000F081E02D642F099508950E94650C08953B
:1019B000CF92DF92EF92FF920F931F93CF93DF931B
:1019C000EC016A017B012115310541F4E881F981BF
:1019D0000190F081E02D642F09951FC02A30310558
:1019E000D1F477FF17C0E881F9810190F081E02DF3
:1019F0006DE209958C0144275527BA014C195D0900
:101A00006E097F09CE012AE00E94650C9801280F1B
:101A1000391F04C02AE00E94650C9C01C901DF91B6
:101A2000CF911F910F91FF90EF90DF90CF9008958D
:101A30000E94490C08957F928F929F92AF92BF921D
:101A4000CF92DF92EF92FF920F931F93CF93DF938A
:101A50004C017A018B01722ECB01BA01A8019701CA
:101A60000E94DD2C882321F0C40161E671E021C0D1
:101A7000C0E0D0E057016801E894D7F8C601B5018D
:101A80002FEF3FEF4FE75FE70E94DD2C882351F4F3
:101A9000C601B5012FEF3FEF4FE75FE70E945F2AD6
:101AA000181614F0C1E0D0E0219739F0C40165E6C2
:101AB00071E00E94490CEC0193C0C801B7012FEFFF
:101AC0003FEF4FE75FE40E94182C181654F0C8014E
:101AD000B7012FEF3FEF4FE75FEC0E945F2A8823AB
:101AE00024F4C40169E671E0E4CFC801B70120E045
:101AF00030E040E050E00E945F2A87FD03C0C0E074
:101B0000D0E00EC0D401ED91FC910190F081E02D68
:101B1000C4016DE20995EC0117FB109517F91095BA
:101B200020E030E040E05FE3DD240BC0CA01B901F2
:101B300020E030E040E251E40E94662A9B01AC01C3
:101B4000D394D71498F3C801B7010E9499295B0177
:101B50006C010E94D32A7B018C01C401B801A7014A
:101B60002AE030E00E94C90CC80FD91F772039F055
:101B7000C4016DE671E00E94490CC80FD91FC8016D
:101B8000B7010E94FF2A9B01AC01C601B5010E946A
:101B9000982924C020E030E040E251E40E94232C48
:101BA0007B018C010E94CE2A5B016C01CC24B7FC26
:101BB000C094DC2CC401B601A5012AE030E00E94EB
:101BC000D80CC80FD91FC601B5010E94012B9B017B
:101BD000AC01C801B7010E9498297A947720D1F608
:101BE000CE01DF91CF911F910F91FF90EF90DF9089
:101BF000CF90BF90AF909F908F907F9008950E945C
:101C00001B0D0895EF92FF920F931F937C010E948A
:101C1000490C8C01C7010E94150C080F191FC8013F
:101C20001F910F91FF90EF900895282F8091C20986
:101C30008823C1F057FF1AC015C028989093C10996
:101C40008091F1008193E217F307B9F7411551052F
:101C500039F08091F200882319F48BE68093E80034
:101C6000AFBF02C04FEF5FEFCA010895AFB7F8945E
:101C700027702093E9008091F200282F30E024178C
:101C800035070CF4A901FB019B01240F311D94E6DB
:101C9000DACFDF93CF930F92CDB7DEB7BE016F5F80
:101CA0007F4F41E050E00E94150E019719F02FEF91
:101CB0003FEF03C08981282F30E0C9010F90CF91F9
:101CC000DF910895FF920F931F93F82E142F052F85
:101CD0004091C5095091C609212F302FC901DC015F
:101CE000FB016EEF29C0F7FE02C0949101C0908104
:101CF0002091C3093091C40924173507ACF48091B1
:101D0000E8008570E1F38091E80082FF03C02FEFC7
:101D10003FEF17C09093F100C90101968F73907047
:101D2000892B11F46093E8002F5F3F4F3093C40973
:101D30002093C309119731961097A9F6812F902F00
:101D40009C01C9011F910F91FF9008959C01809102
:101D5000E80082FFFCCFF901260F311D03C08091FE
:101D6000F1008193E217F307D1F7289884E6809376
:101D7000C1098BEF8093E800CB0108958093E900BF
:101D80008091F200882319F08AE38093E800089597
:101D900008951092C20981E08093D70080EA809371
:101DA000D80082E189BD09B400FEFDCF61E070E09A
:101DB00080E090E00E94F11180E98093D8008CE0EF
:101DC0008093E2001092E000559A209A08955F9265
:101DD0006F927F928F929F92AF92BF92CF92DF923B
:101DE000EF92FF920F931F93CF93DF93E82E842EF1
:101DF000752E8091C209882371F18B01242F352F14
:101E0000C901EC017AEFF72E67E0962E9E2050E490
:101E1000552E8E2D90E040E2A42EB12CA822B9229E
:101E20003AE3632E20E4C22ED12CC822D92258C016
:101E30009FB7F8949092E9008091E80085FD02C078
:101E400020E004C08091F200252D281B9FBF222393
:101E500061F4FA9419F42FEF3FEF4DC061E070E0A8
:101E600080E090E00E94F1113BC0822F90E0C81703
:101E7000D9070CF42C2FC21BD1094FB7F8949092BC
:101E8000E900A114B10421F406C01092F100215020
:101E90002223D9F719C0E7FC03C0F801922F10C024
:101EA000C801322F06C0FC010196E491E093F100D5
:101EB00031503323C1F706C081918093F1009150D6
:101EC0009923D1F7020F111D8091E80085FF05C00D
:101ED000209729F4C114D10411F06092E8004FBF9B
:101EE000209709F0A5CF5D9884E68093C009282D3E
:101EF000372DC9019C01C901DF91CF911F910F912D
:101F0000FF90EF90DF90CF90BF90AF909F908F9019
:101F10007F906F905F9008951F920F920FB60F926F
:101F200011242F933F934F935F936F937F938F93DE
:101F30009F93AF93BF93EF93FF938091E100109233
:101F4000E100982F83FF0FC01092E90081E0809399
:101F5000EB001092EC0082E38093ED001092C20936
:101F600088E08093F00092FF34C083E08093E90022
:101F70008091F200882319F08AE38093E8008FB7FC
:101F8000F89492E09093E9009091F2008FBF99232A
:101F900021F082EB99E00E94400B8091C0098823D8
:101FA00051F08091C00981508093C0098091C0098F
:101FB000882309F45D9A8091C109882351F08091AA
:101FC000C10981508093C1098091C109882309F416
:101FD000289AFF91EF91BF91AF919F918F917F913F
:101FE0006F915F914F913F912F910F900FBE0F9086
:101FF0001F9018950F931F93DF93CF930F92CDB738
:10200000DEB719828E010F5F1F4FC8010E94660B59
:10201000C8010E94861D898190E00F90CF91DF91C9
:102020001F910F9108951F920F920FB60F921124D6
:10203000EF92FF921F932F933F934F935F936F9372
:102040007F938F939F93AF93BF93EF93FF93DF9310
:10205000CF93CDB7DEB76197DEBFCDBF1092E90059
:102060008091E80083FF0FC1FE0131969E01275F3A
:102070003F4F03C08091F1008193E217F307D1F73E
:10208000289884E68093C10982EF8093E8009981C3
:1020900097FF05C08091E80080FFFCCF03C08EEF62
:1020A0008093E800292F30E0C90180769070892B59
:1020B00009F0C2C08A81882329F41092F10010929D
:1020C000F100D6C0813009F4D3C0833009F4D0C008
:1020D000853049F48091E80080FFFCCF8B818068D7
:1020E0008093E300C5C0863009F07CC01C81EF807E
:1020F000F8841230C1F51092E9001092C4091092D0
:10210000C3091092C6091092C5090E94FA0F99E0FE
:10211000FE013996DF01292F1D922A95E9F799874B
:102120001A8791E09E8790E8988B9AEF998B20917F
:10213000C3093091C409275F3F4F3C872B878D87A8
:102140001092E9001092C4091092C309F092C609D6
:10215000E092C50980E0BF0149E050E00E94620EB4
:102160000E94FA0F85C01092E9001092C4091092E3
:10217000C309F092C609E092C509123241F482E225
:1021800090E00E947E1D892B09F476C071C0113049
:1021900079F488E0E816F10419F481E08093C70926
:1021A0008091C709882309F06BC0E7E7F1E013C00D
:1021B000133009F061C08B81882319F4E9E3F1E061
:1021C0000AC0823019F4EDE3F1E005C0813009F076
:1021D00053C0EFE5F1E0449180E8BF0150E00E9478
:1021E000620E46C0873009F447C0883021F481E090
:1021F0008093F1003DC08930D9F523703070232BD6
:10220000D9F5ECE9F1E091E031E026E39093E900C3
:102210003093EB0084918093EC002093ED009F5F5E
:102220003196953099F78EE78093EA001092EA0094
:102230008B818093C2091CC08F8198851092E90020
:102240001092C4091092C3099093C6098093C509DE
:102250008D81882329F4CE0101960E94720B06C05D
:10226000823051F4CE0101960E944F1C882321F048
:102270008EEF8093E80007C081E28093EB0003C0FB
:10228000E9E8F1E0A8CF6196DEBFCDBFCF91DF9145
:10229000FF91EF91BF91AF919F918F917F916F913E
:1022A0005F914F913F912F911F91FF90EF900F9071
:1022B0000FBE0F901F901895CF93DF930E944A1284
:1022C00088EC99E00E94C90E0E945C0AC0E0D0E050
:1022D0000E94490A2097E1F30E940000F9CF0E9472
:1022E000DC0108950E94DC0108951F920F920FB641
:1022F0000F9211242F933F938F939F93AF93BF938C
:102300008091CD099091CE09A091CF09B091D009CB
:102310003091D1090196A11DB11D232F2D5F2D37BD
:1023200020F02D570196A11DB11D2093D109809356
:10233000CD099093CE09A093CF09B093D009809195
:10234000C9099091CA09A091CB09B091CC09019615
:10235000A11DB11D8093C9099093CA09A093CB090F
:10236000B093CC09BF91AF919F918F913F912F91E5
:102370000F900FBE0F901F9018958FB7F894209173
:10238000CD093091CE094091CF095091D0098FBF2E
:10239000B901CA0108959FB7F8942091C9093091F5
:1023A000CA094091CB095091CC0986B5A89B06C0BB
:1023B0008F3F21F02F5F3F4F4F4F5F4F9FBF542FF5
:1023C000432F322F2227280F311D411D511D82E03E
:1023D000220F331F441F551F8A95D1F7B901CA0137
:1023E00008959B01AC017FB7F8948091C909909141
:1023F000CA09A091CB09B091CC0966B5A89B05C0CC
:102400006F3F19F00196A11DB11D7FBFBA2FA92FF3
:10241000982F8827860F911DA11DB11D62E0880F9E
:10242000991FAA1FBB1F6A95D1F7BC012DC0FFB72A
:10243000F8948091C9099091CA09A091CB09B091F3
:10244000CC09E6B5A89B05C0EF3F19F00196A11D88
:10245000B11DFFBFBA2FA92F982F88278E0F911D6E
:10246000A11DB11DE2E0880F991FAA1FBB1FEA95AD
:10247000D1F7861B970B885E9340C8F221503040FD
:102480004040504068517C4F2115310541055105B0
:1024900071F60895789484B5826084BD84B58160B6
:1024A00084BD85B5826085BD85B5816085BDEEE65C
:1024B000F0E0808181608083E1E8F0E0108280813B
:1024C00082608083808181608083E0E8F0E08081A9
:1024D00081608083E1EBF0E0808184608083E0EBC9
:1024E000F0E0808181608083E1E9F0E080818260BA
:1024F0008083808181608083E0E9F0E08081816079
:102500008083E1ECF0E08081846080838081826060
:102510008083808181608083E3ECF0E08081816052
:102520008083E0ECF0E0808182608083E2ECF0E088
:10253000808181608083EAE7F0E08081846080832D
:1025400080818260808380818160808380818068D7
:10255000808308950F931F93DC01ED91FC91068415
:10256000F785E02D20E830E000E410E009951F91A8
:102570000F910895FC01838D882319F42FEF3FEF0D
:102580000DC00788F08DE02D2081318182819381FB
:10259000281B390B8481958128233923C90108958B
:1025A000FC01838D882361F0A789B08D2D913C912A
:1025B000119712968D919C9113972817390721F442
:1025C0004FEF5FEFCA01089512968D919C9113977A
:1025D0001696ED91FC911797E80FF91F408112961E
:1025E0008D919C911397019614962D913C9115977E
:1025F0008223932313969C938E93129750E0E2CFFD
:10260000FC018091D2098C3090F480838F5F80939D
:10261000D209815090E0FC01EE0FFF1FE80FF91F77
:10262000ED52F64F88EB9BE09283818308958FEF04
:1026300080830895FC0120812C30B8F58181992791
:1026400087FD909548E850E0481B590B440F551FF3
:10265000440F551F6417750784F08281992787FD01
:10266000909548E552E0481B590B440F551F440F05
:10267000551F641775070CF4AB0142505040CA0156
:10268000AA2797FDA095BA2F880F991FAA1FBB1FD5
:102690004FB7F89430E0F901EE0FFF1FE20FF31F80
:1026A000ED52F64F928381834FBF0895CF92DF9210
:1026B000EF92FF921F93CF93DF93EC01162F7A01D5
:1026C000690188818C3008F064C0862F61E00E9427
:1026D000921D888190E0FC01EE0FFF1FE80FF91FAB
:1026E000ED52F64F1F738081807C812B808380E2C6
:1026F00092E08E199F0964E070E00E94482D698382
:1027000080E699E08C199D0964E070E00E94482DF4
:102710006A83A8818A2F6CE00E94282D682F70E0C0
:10272000AB01440F551F460F571F440F551F440F51
:10273000551F20E030E0C901840F951FFC01EE0F0A
:10274000FF1FE80FF91FED52F64F808186FD15C07F
:102750002F5F3F4F2C30310571F724C0109280005D
:1027600082E0809381001092850010928400B19ADB
:1027700080916F00826080936F008A2F90E0FC014F
:10278000EE0FFF1FE80FF91FED52F64F80818064B6
:1027900080838881DF91CF911F91FF90EF90DF9030
:1027A000CF900895672BD1F2E8CF40E252E020E6C7
:1027B00039E00E94561308951F920F920FB60F92A0
:1027C00011242F933F934F935F936F937F938F9336
:1027D0009F93AF93BF93EF93FF938091F70987FF88
:1027E00005C010928500109284002BC02091F7093B
:1027F000332727FD30958091D20990E028173907BB
:1028000004F58091F709992787FD9095FC01EE0F5B
:10281000FF1FE80FF91FED52F64F808186FF11C0B0
:102820008091F709992787FD9095FC01EE0FFF1F16
:10283000E80FF91FED52F64F80818F7360E00E9420
:102840002F1E8091F7098F5F8093F7092091F70978
:10285000332727FD30958091D20990E0281739075A
:102860000CF04EC08091F7098C300CF049C02091DB
:102870008400309185008091F709992787FD909514
:10288000FC01EE0FFF1FE80FF91FED52F64F81819B
:102890009281280F391F30938900209388008091FE
:1028A000F709992787FD9095FC01EE0FFF1FE80FB0
:1028B000F91FED52F64F808186FF2BC08091F709FA
:1028C000992787FD9095FC01EE0FFF1FE80FF91F78
:1028D000ED52F64F80818F7361E00E942F1E19C068
:1028E00080E49CE905C08091840090918500049665
:1028F00090938900809388008FEF8093F70909C037
:102900008091840090918500049680549C4940F306
:10291000EACFFF91EF91BF91AF919F918F917F91FE
:102920006F915F914F913F912F910F900FBE0F903C
:102930001F90189525E33AEF4EE85CE30E94232CA4
:102940000895FC0183819481019694838383089583
:102950005F926F927F928F929F92AF92BF92CF922F
:10296000DF92EF92FF920F931F93CF93DF93EC01CF
:102970003B010E94CB11AC01CB01DA017C018D013E
:10298000552457C0852D90E04C01880C991C880D6A
:10299000991D880F991F48815981480F591FED8152
:1029A000FE81E80DF91D8B819C8120813181821B84
:1029B000930BDA0112962D913C911397821793078E
:1029C000B8F114968D919C911597A0E0B0E08F839B
:1029D0009887A987BA875301CC24DD24A816B906A5
:1029E000CA06DB0628F1EB86FC860D871E87DA0116
:1029F000ED91FC910995ED81FE81E80DF91D8B812A
:102A00009C81918380830E94CB117B018C018B85FB
:102A10009C85AD85BE85A8019701281B390B4A0B03
:102A20005B0B2A153B054C055D05B0F4621A730A71
:102A300053948A81581608F4A5CF930140E050E0E2
:102A40008F859889A989BA89820F931FA41FB51F02
:102A50008F87988BA98BBA8B8B898F5F8B8B8032FA
:102A600071F480E18B8B8F859889A989BA89B69595
:102A7000A795979587958F87988BA98BBA8BDF91B0
:102A8000CF911F910F91FF90EF90DF90CF90BF906B
:102A9000AF909F908F907F906F905F9008950F936D
:102AA0001F938C01842FF80171836083428390E02F
:102AB000880F991F0E946F11F801858396832281E8
:102AC00030E0220F331F60E070E0A9010E94E702AE
:102AD000F801148213821F910F91089588EF99E0F5
:102AE0000E94DF2389EF99E04FEF5FEF6FEF7FEFF9
:102AF0000E94931E8CE09AE04FEF5FEF6FEF7FEF45
:102B00000E949D1E08951F93CF93DF93EC0182EBEB
:102B100099E06FE671E00E94180D89EF99E00E943C
:102B2000C523882311F010E007C082EB99E060EA2A
:102B300071E00E94350C11E08CE09AE00E9467235E
:102B4000882339F482EB99E067E871E00E94020E75
:102B500002C0112341F082EB99E06AEB71E00E9420
:102B6000180D1D8A08C082EB99E066ED71E00E94A5
:102B7000180D81E08D8BDF91CF911F910895FF9209
:102B80000F931F93DF93CF93CDB7DEB7AE970FB6FA
:102B9000F894DEBF0FBECDBF8C01F62ECE0101969C
:102BA0000E94DF23CE0102964DE556E760E070E01B
:102BB0000E94931E8C818093FB09ACEFB9E0FE016B
:102BC00035968CE001900D928150E1F789899A89C0
:102BD000AB89BC898093080A9093090AA0930A0ADA
:102BE000B0930B0ACE0145964EE556E760E070E0E3
:102BF0000E949D1E8F8980930E0A888D998D9093D7
:102C0000100A80930F0AA1E1BAE0FE017A9680E1F2
:102C100001900D928150E1F78AA59BA5ACA5BDA5B9
:102C20008093210A9093220AA093230AB093240A46
:102C30008EA58093250AF801F4860E94BD11F80143
:102C4000658776878787908B118A128A138A148A00
:102C5000C8010E948315AE960FB6F894DEBF0FBE72
:102C6000CDBFCF91DF911F910F91FF900895AF924B
:102C7000BF92CF92DF92EF92FF920F931F93DF9359
:102C8000CF93CDB7DEB7C855D0400FB6F894DEBFAE
:102C90000FBECDBF5C010E94BD11F50125853685B3
:102CA00047855089621B730B840B950B618B728B6C
:102CB000838B948B248530E040E050E02617370763
:102CC0004807590710F080E04AC0F501858988233C
:102CD000F1F18E010F5E1F4F89EF99E0B8010E945C
:102CE000462088EF99E0B8016E010894C11CD11C00
:102CF000A6010E948C2585E3E82EF12CEC0EFD1E2A
:102D00008CE09AE0B7010E94AB2188EF99E0B8010E
:102D1000A70196010E94E0238823C9F089859A853E
:102D2000AB85BC85F50180839183A283B3838D81BC
:102D30009E81AF81B88584839583A683B78389817B
:102D40009A81AB81BC8180879187A287B3870E94DB
:102D5000BD11F501658776878787908B81E0C85A1A
:102D6000DF4F0FB6F894DEBF0FBECDBFCF91DF911E
:102D70001F910F91FF90EF90DF90CF90BF90AF9099
:102D8000089582EB99E040E051EE60E070E00E942F
:102D9000AA120895FC01818D928D8617970710F471
:102DA000728F618F8789908D6817790710F4708F03
:102DB000678B858596856817790721F07687658703
:102DC000768365830895FC01858996890895FC01C1
:102DD0008789908D0895FC01858196810895FC0175
:102DE000818D928D08950F931F938C018091260AF7
:102DF0009091270AF80167850E946A17F80183837A
:102E00009483818B928B1F910F910895FC016581B2
:102E100076810E941A130895EF92FF920F931F93E9
:102E20008C01E62EF42E0E944E189093270A809370
:102E3000260AF801E08AF786C8016E2D70E00E942C
:102E4000D51380EB94E0F801908F878B88E097E0B2
:102E5000928F818F148A138A82EB99E06AEE71E077
:102E60000E94180D1F910F91FF90EF900895CF933E
:102E7000DF93EC01DB0112962C93129711965C9371
:102E80004E93EA81FB81808113969C911397892B45
:102E9000808312968C911297833011F0813031F437
:102EA0008D8113969C911397892B8D8312968C910B
:102EB00012978150823028F48E8113969C91892B31
:102EC0008E83809168009C81892B80936800DF91BC
:102ED000CF910895FC01643080F4623039F06330A2
:102EE00041F0613049F48081918109C082819381F0
:102EF00006C08481958103C003C080E090E0282F44
:102F0000822F0895FC018091440A882309F445C06A
:102F10008091440A282F30E0D901A170B07080FF61
:102F200008C080913E0A90913F0A90934E0A809388
:102F30004D0AB9016270707021FF08C08091400A8B
:102F40009091410A90934C0A80934B0AA9014470D6
:102F5000507022FF08C08091420A9091430A9093DA
:102F60004A0A8093490AAB2B31F080914D0A909127
:102F70004E0A91838083672B31F080914B0A9091A8
:102F80004C0A93838283452B31F08091490A9091BA
:102F90004A0A958384831092480A0895E5EFF2E087
:102FA000859194919093290A8093280A8DE690E068
:102FB00090932B0A80932A0A84E080932C0A109223
:102FC0002D0A10922E0A1092310A1092300A08959A
:102FD00084E00E94621E019759F40E94CB11609315
:102FE0003A0A70933B0A80933C0A90933D0A0895F5
:102FF0000E94CB1120913A0A30913B0A621B730B5D
:103000007093430A6093420A8091440A84608093DB
:10301000440A089583E00E94621E019759F40E94B9
:10302000CB116093360A7093370A8093380A9093D5
:10303000390A08950E94CB112091360A3091370A3F
:10304000621B730B7093410A6093400A8091440A9B
:1030500082608093440A089582E00E94621E019774
:1030600059F40E94CB116093320A7093330A809313
:10307000340A9093350A08950E94CB112091320AA8
:103080003091330A621B730B70933F0A60933E0AC0
:103090008091440A81608093440A08958091450A92
:1030A000882369F486E090E00E947211282F8093B3
:1030B000460A9093470A81E08093450A04C0209114
:1030C000460A9091470A822F0895CF92DF92EF929D
:1030D000FF920F931F93CF93DF938C01F62E6A011B
:1030E000E22EFC01C085D185209789F08C818F1557
:1030F00041F4C801BE01A6012E2D0E94371780E0C1
:103100003CC08D819E81009731F0EC01EFCF80E0D3
:1031100090E09C01E90187E090E00E947211DC01DF
:1031200011961C921E9212961C921297009711F4FF
:103130008FEF23C01496FC9214971296EC9212977C
:1031400016961C921E921597EF2DF0E0E75EFC4F4D
:10315000E4911396EC931397F80180859185892B60
:1031600019F4B187A08702C0BE83AD83C801BD0139
:10317000A6012E2D0E94371781E0DF91CF911F917C
:103180000F91FF90EF90DF90CF900895582F9B0103
:10319000742FE82FF0E0E550FD4F84918823C1F0B3
:1031A00021153105A9F0843019F4A8E2BAE002C073
:1031B000A0E0B0E0ED91FC911197808117968C937F
:1031C0001797CD01652FA901272F0E946518089533
:1031D0008FEF089582E06CE278E141E050E00E94D8
:1031E000C61883E06AE078E141E050E00E94C6182A
:1031F00084E068EE77E141E050E00E94C61808954F
:103200002F923F924F925F926F927F928F929F92F6
:10321000AF92BF92CF92DF92EF92FF920F931F93E4
:10322000DF93CF9300D000D0CDB7DEB71C01498328
:103230005A836B837C834801590126013701CB01F6
:10324000BA0120E030E040E050E00E945F2A87FDB4
:103250008CC0C501B40120E030E040E050E00E94A5
:103260005F2A87FD82C0C701B60120E030E040E060
:1032700050E00E945F2A87FD78C089819A81AB81E6
:10328000BC81F10180839183A283B383D101149621
:103290008D929D92AD92BC921797C086D186E286A0
:1032A000F38664A575A586A597A50E94FF2A20E050
:1032B00030E04AE754E40E94662A7B018C01898150
:1032C0009A81AB81BC81F10184879587A687B787F6
:1032D000C501B401A80197010E94232C5B016C0178
:1032E000D10150966D937D938D939C935397C30119
:1032F000B201A80197010E94662A7B018C01F101AD
:10330000648B758B868B978B808D918D019769F57A
:1033100060E070E080E090E029813A814B815C813F
:103320000E949829D1011C966D937D938D939C9357
:103330001F9760E070E080E090E0A60195010E9498
:103340009829F101608B718B828B938B60E070E028
:1033500080E090E0A80197010E949829D10154963D
:103360006D937D938D939C9357970F900F900F9033
:103370000F90CF91DF911F910F91FF90EF90DF9011
:10338000CF90BF90AF909F908F907F906F905F9005
:103390004F903F902F9008954F925F926F927F923F
:1033A0008F929F92AF92BF92CF92DF92EF92FF9255
:1033B0000F931F93CF93DF93EC013A014B017801F8
:1033C0008901CB01BA01A80197010E94182C87FF3F
:1033D0004EC068AA79AA8AAA9BAAECAAFDAA0EAB3B
:1033E0001FAB88AD882309F442C04C8C5D8CF20180
:1033F000A080B180C280D380C601B501A801970129
:103400000E94182C181634F4F201E082F182028333
:1034100013830DC0C601B501A40193010E945F2A68
:1034200088232CF4F2016082718282829382ACA0A4
:10343000BDA0CEA0DFA0ECA8FDA80EA91FA9C601C3
:10344000B501A80197010E94182C181664F0E8A88D
:10345000F9A80AA91BA9C601B501A80197010E94F4
:103460005F2A882324F4ECA2FDA20EA31FA3DF9100
:10347000CF911F910F91FF90EF90DF90CF90BF9071
:10348000AF909F908F907F906F905F904F90089536
:103490009F92AF92BF92CF92DF92EF92FF920F93E3
:1034A0001F93CF93DF93EC0199246130710511F4E0
:1034B0009924939488AD91E08927981681F5EC8D35
:1034C000FD8DE080F18002811381ECA2FDA20EA3AC
:1034D0001FA3EA8DFB8D80819181A281B38188A792
:1034E00099A7AAA7BBA7ACA8BDA8CEA8DFA8C8016A
:1034F000B701A60195010E94182C181664F0A8A81F
:10350000B9A8CAA8DBA8C801B701A60195010E9405
:103510005F2A882324F4ACA2BDA2CEA2DFA298AE7B
:10352000DF91CF911F910F91FF90EF90DF90CF909F
:10353000BF90AF909F9008952F923F924F925F92CD
:103540006F927F928F929F92AF92BF92CF92DF92B3
:10355000EF92FF920F931F93DF93CF9300D000D091
:1035600000D0CDB7DEB79E838D83DC01D8968C91D9
:10357000882309F4E5C00E94BD1169837A838B8397
:103580009C83ED81FE8180A191A1A2A1B3A129819B
:103590003A814B815C81281B390B4A0B5B0B84A55C
:1035A00095A5A6A5B7A5281739074A075B0708F40C
:1035B000C7C0028CF38DE02D208031804280538083
:1035C000AD81BE815E96ED91FC915F9760817181C6
:1035D00082819381A20191010E9498293B014C01B3
:1035E000ED81FE8120893189428953890E94232CF3
:1035F000AD81BE8194962D913D914D915C919797AF
:103600000E9499297B018C01ED81FE8164A375A341
:1036100086A397A3A4A8B5A8C6A8D7A8A601950174
:103620000E94182C181674F0ED81FE81A0A8B1A894
:10363000C2A8D3A8C801B701A60195010E945F2ABC
:10364000882344F4AD81BE819496AD92BD92CD9213
:10365000DC929797C401B301ED81FE812485358505
:10366000468557850E94232CAD81BE8194962D916D
:103670003D914D915C9197970E9499297B018C0116
:10368000C201B101ED81FE8120A531A542A553A55E
:103690000E949829AD81BE8154962D913D914D9106
:1036A0005C9157970E94232C9B01AC01C801B70184
:1036B0000E9498297B018C01ED81FE81D4A8C5A8C8
:1036C000B6A8A7A82D2D3C2D4B2D5A2D0E94182CA5
:1036D0001816BCF0AD81BE81D096DC90D097D19603
:1036E000CC90D197D296BC90D297D396AC90C8018B
:1036F000B7012D2D3C2D4B2D5A2D0E945F2A88237A
:1037000034F48D2D9C2DAB2DBA2D7C018D01AD8116
:10371000BE815C96ED91FC915D97E082F18202831F
:103720001383FD0120A631A642A653A689819A8162
:10373000AB81BC8180A391A3A2A3B3A381E001C00C
:1037400080E026960FB6F894DEBF0FBECDBFCF91B6
:10375000DF911F910F91FF90EF90DF90CF90BF907E
:10376000AF909F908F907F906F905F904F903F9021
:103770002F9008954F925F926F927F928F929F92B7
:10378000AF92BF92CF92DF92EF92FF920F931F936F
:10379000DF93CF93CDB7DEB74C0127013801EF8817
:1037A000F88CFC01558F448F738F628F378F268F73
:1037B00010AE40E050E060E070E000E010E02FE785
:1037C00033E40E94CC1984E690E0A0E0B0E0F4017C
:1037D00084A795A7A6A7B7A780AD882391F1808D70
:1037E000918DE816F90669F160E070E080E090E004
:1037F00024853585468557850E949829F40164877C
:1038000075878687978760E070E080E090E0208988
:103810003189428953890E949829F401608B718B08
:10382000828B938B60E070E080E090E024893589A2
:10383000468957890E949829F401648B758B868B81
:10384000978BF401F18EE08EC401B301A2019601C1
:103850008501CB88DC88ED88FE880E9400190E94D3
:10386000BD11F40124A535A546A557A5621B730B10
:10387000840B950B60A371A382A393A3CF91DF91D7
:103880001F910F91FF90EF90DF90CF90BF90AF907E
:103890009F908F907F906F905F904F900895FC0164
:1038A00091818081813A31F4913089F080E09330C8
:1038B00089F40DC0813269F49B3021F482818093B8
:1038C000B80205C09A3029F482818093B90281E060
:1038D000089580E00895EF92FF920F931F938C015B
:1038E000E62EDC01ED91FC910480F581E02D099537
:1038F000F82ED801ED91FC910680F781E02DC801EA
:103900006E2D09958F2D90E01F910F91FF90EF90F4
:10391000089510924F0A1092530A1092520A82E0B0
:1039200094E09093510A8093500A0895EF92FF9289
:103930000F931F93DF93CF930F92CDB7DEB7898399
:103940008B017A0184E0BE016F5F7F4F41E050E060
:103950000E94E70E84E4B801A7010E94E70E0F90D1
:10396000CF91DF911F910F91FF90EF90089582E02A
:1039700048E050E00E94961C0895FC0116821782D0
:10398000108611861286138614823496BF010E9417
:10399000B71C0895DC01683810F0685829C0E62F7C
:1039A000F0E067FF13C0E058F04081E090E002C013
:1039B000880F991FEA95E2F7809514962C91149739
:1039C000282314962C93149760E012C0EF5AFD4FF1
:1039D0006491662319F420E030E01DC067FF08C041
:1039E00014968C9114978D7F14968C9314976F77FF
:1039F000FD0190E0662321F08681861709F4168286
:103A00009F5F31969630B1F7CD011496BD010E94AB
:103A1000B71C21E030E0C9010895CF93DF93DC01AA
:103A2000683810F0685825C0E62FF0E067FF12C034
:103A3000E058F04081E090E002C0880F991FEA95BD
:103A4000E2F714962C911497282B14962C93149724
:103A500060E00FC0EF5AFD4F64916623D9F167FF14
:103A600008C014968C911497826014968C931497C6
:103A70006F7716968C9116978617A9F117968C91E9
:103A80001797861781F118968C911897861759F118
:103A900019968C911997861731F11A968C911A976D
:103AA000861709F11B968C911B978617E1F0ED01A3
:103AB000E0E0F0E09E2F8E81882321F4EA0FFB1FC7
:103AC000668306C09F5F31962196E630F10591F737
:103AD000963049F481E090E013969C938E93129770
:103AE00020E030E007C0CD011496BD010E94B71C54
:103AF00021E030E0C901DF91CF91089580E863EDC6
:103B000071E045E650E00E94620E0895FC0180815C
:103B10008F5F808380E868E372E049E150E00E94B3
:103B2000620E0895CF93DF93482F50E0CA01875E5D
:103B30009C4FFC01349145505D4FFA0184918823DC
:103B400069F190E0880F991FFC01EF52FD4FA5919C
:103B5000B491FC01E152FD4FC591D491662351F41B
:103B60002FB7F8948C91932F909589238C9388810B
:103B700089230BC0623061F42FB7F8948C91932F96
:103B8000909589238C938881832B88832FBF06C0CF
:103B90009FB7F8948C91832B8C939FBFDF91CF912B
:103BA00008958730C1F1883080F48330F9F0843093
:103BB00030F4813029F1823009F050C024C08430C3
:103BC000C9F0863009F04AC022C08A3091F18B30AA
:103BD00030F4883031F1893009F040C026C08C3093
:103BE00091F18C3060F18E30C9F533C08091800046
:103BF0008F7703C0809180008F7D8093800008952F
:103C000084B58F7702C084B58F7D84BD089580917F
:103C1000B0008F7703C08091B0008F7D8093B0009B
:103C20000895809190008F7707C0809190008F7DDC
:103C300003C080919000877F8093900008958091C9
:103C4000C0008F7703C08091C0008F7D8093C0003B
:103C500008958091C200877F8093C2000895FF92EB
:103C60000F931F93F62E482F50E0CA01895C9C4F9A
:103C7000FC012491CA01875E9C4FFC0114914550C0
:103C80005D4FFA0104910023C9F0222319F0822F1D
:103C90000E94D11DE02FF0E0EE0FFF1FE152FD4F1B
:103CA000A591B4919FB7F894FF2021F48C911095C1
:103CB000812302C08C91812B8C939FBF1F910F9108
:103CC000FF9008950F931F93482F50E0CA01895C1D
:103CD0009C4FFC012491CA01875E9C4FFC0104911A
:103CE00045505D4FFA011491112319F420E030E0A2
:103CF00015C0222319F0822F0E94D11D812F90E040
:103D0000880F991F83519D4FFC01A591B4918C910F
:103D100020E030E0802311F021E030E0C9011F9164
:103D20000F9108950895FC018AE194E091838083C6
:103D30004787508B618B728B0895FC0180E194E082
:103D400091838083458B568B678B708F118E08957E
:103D5000FC01618F0895EF92FF920F931F937C01F6
:103D60008B0188E2FB0111928A95E9F7CB0169EF9B
:103D700071E04BE050E00E94EE02F801138681E012
:103D800090E0A0E0B0E084879587A687B787F70129
:103D900085899689A789B08DF801808B918BA28B3C
:103DA000B38B82E090E0A0E0B0E0848B958BA68B93
:103DB000B78B14A215A216A217A280E090E0A0E093
:103DC000B0E0808F918FA28FB38F848F958FA68F55
:103DD000B78F80A391A3A2A3B3A31F910F91FF90CC
:103DE000EF900895EF92FF920F931F937C018B0148
:103DF00088E2FB0111928A95E9F7CB0169EF71E046
:103E00004BE050E00E94EE02F801138621E030E022
:103E100040E050E02487358746875787F70187853C
:103E20009089A189B289F801808B918BA28BB38B89
:103E3000248B358B468B578B14A215A216A217A282
:103E400080E090E0A0E0B0E0808F918FA28FB38FF0
:103E5000848F958FA68FB78F80A391A3A2A3B3A3BE
:103E60001F910F91FF90EF9008959F92AF92BF9294
:103E7000CF92DF92EF92FF920F931F93CF93DF9336
:103E8000EC0182EA9AE06EE10E944B2682EA9AE017
:103E900063E00E94CD2682EA9AE00E94102782EA1F
:103EA0009AE06EE146E00E94212782EA9AE00E94B1
:103EB00055260697D4F382EA9AE00E945E26A82E41
:103EC00082EA9AE00E945E26E82E82EA9AE00E9448
:103ED0005E26982E82EA9AE00E945E26C82E82EA2A
:103EE0009AE00E945E26B82E82EA9AE00E945E2640
:103EF000082F7A2D60E0FF246E297F29882777FD1F
:103F00008095982F0E94012B6D837E838F839887E5
:103F10007B2D60E010E0602B712B882777FD80956A
:103F2000982F0E94012B69877A878B879C87792D30
:103F300060E0DD246C297D29882777FD8095982F06
:103F40000E94012B6D877E878F87988B80E090E0A1
:103F5000A0E0B0E0898B9A8BAB8BBC8BDF91CF91CB
:103F60001F910F91FF90EF90DF90CF90BF90AF9097
:103F70009F9008959F92AF92BF92CF92DF92EF925F
:103F8000FF920F931F93CF93DF93EC0182EA9AE0A5
:103F900069E10E944B2682EA9AE068EA0E94CD26F7
:103FA00082EA9AE00E94102782EA9AE069E146E0FC
:103FB0000E94212782EA9AE00E9455260697D4F3B0
:103FC00082EA9AE00E945E26082F82EA9AE00E9426
:103FD0005E26B82E82EA9AE00E945E26E82E82EAE9
:103FE0009AE00E945E26A82E82EA9AE00E945E264F
:103FF000C82E82EA9AE00E945E26982E7B2D60E011
:1040000010E0602B712B24E0759567952A95E1F7F8
:10401000882777FD8095982F0E94012B6B837C83E6
:104020008D839E837A2D60E0FF246E297F2994E0A2
:10403000759567959A95E1F7882777FD8095982F74
:104040000E94012B6F83788789879A87792D60E09A
:10405000DD246C297D2984E0759567958A95E1F7C3
:10406000882777FD8095982F0E94012B6B877C878E
:104070008D879E87DF91CF911F910F91FF90EF90D9
:10408000DF90CF90BF90AF909F900895EF92FF92F6
:104090000F931F937C018B0184E2FB0111928A959F
:1040A000E9F7C7010E94BA1F84E290E0A0E0B0E007
:1040B000F80180839183A283B383F7018785908978
:1040C000A189B289F80184839583A683B78381E0AF
:1040D00090E0A0E0B0E080879187A287B3870E943C
:1040E000BD11F801608B718B828B938BF70163811B
:1040F0007481858196812FE632E143E85AE30E947C
:10410000232C2AE038EE4CE151E40E94232CF801E4
:10411000648B758B868B978BF701678170858185A2
:1041200092852FE632E143E85AE30E94232C2AE0ED
:1041300038EE4CE151E40E94232CF801608F718F1E
:10414000828F938FF70163857485858596852FE629
:1041500032E143E85AE30E94232C2AE038EE4CE196
:1041600051E40E94232CF801648F758F868F978FFE
:104170001F910F91FF90EF900895EF92FF920F9390
:104180001F93E62EF42E02EA1AE0C8010E944B2685
:10419000C8016F2D0E94CD26C8010E941027C801BA
:1041A0006E2D41E00E942127C8010E945E26F82E54
:1041B000C8010E9410278F2D1F910F91FF90EF9043
:1041C0000895EF92FF920F931F93F42EE22E02EACE
:1041D0001AE0C8010E944B26C8016F2D0E94CD260F
:1041E000C8016E2D0E94CD26C8010E9410271F9184
:1041F0000F91FF90EF9008950F931F93CF93DF934C
:104200008C01EB016EE141E02C2F0E94E120F801CE
:10421000D483C383C038D10509F44DC0C138D1055A
:1042200054F4C034D10529F1C036D10599F1A097D5
:1042300009F08CC00DC0C03CD10509F45EC0C03E81
:10424000D10509F46BC0C03AD10509F07FC044C064
:1042500080E090E8A9E8B4E48093BA029093BB02AE
:10426000A093BC02B093BD0280E090E0A5E7B4E467
:1042700065C080E090ECA5E5B4E48093BA02909329
:10428000BB02A093BC02B093BD0280E090E0AEE31D
:10429000B4E454C080E090E8A7E2B4E48093BA02AA
:1042A0009093BB02A093BC02B093BD0280E090E06B
:1042B000A6E1B4E443C080E090E0A1EEB3E48093D3
:1042C000BA029093BB02A093BC02B093BD0280E0FF
:1042D00090E0A8ECB3E432C080E090E0A8ECB3E456
:1042E0008093BA029093BB02A093BC02B093BD022C
:1042F00080E090E0AFE7B3E421C080E090E0A5EA81
:10430000B3E48093BA029093BB02A093BC02B09333
:10431000BD0280E090E8A3E9B3E410C080E090E043
:10432000A6E6B3E48093BA029093BB02A093BC02CA
:10433000B093BD0280E090E0ADE4B3E48093BE02B0
:104340009093BF02A093C002B093C102DF91CF91BE
:104350001F910F9108952F923F924F925F926F920B
:104360007F928F929F92AF92BF92CF92DF92EF9205
:10437000FF920F931F93DF93CF9300D000D0CDB760
:10438000DEB71C012B0184E2DB011D928A95E9F75F
:10439000C1010E94351FF101818D882309F40CC1F0
:1043A000458156816781708582EB99E022E030E09B
:1043B0000E94FF0D82EB99E060E072E00E94180D10
:1043C000D10119964D915D916D917C911C9782EB75
:1043D00099E022E030E00E94FF0D82EB99E060E07E
:1043E00072E00E94180DF101458556856785708938
:1043F00082EB99E022E030E00E94FF0D82EB99E031
:1044000060E072E00E94020ED10115968D919D919F
:104410000D90BC91A02D89839A83AB83BC83F1015D
:10442000E184F2840385148585849684A784B0880A
:1044300066247724C801B70120E030EA4FE755EC45
:104440000E945F2A18161CF041E0642E712CCC24C7
:10445000DD24C801B70120E030EA4FE755E40E94AF
:10446000182C88231CF031E0C32ED12C7301EC28CA
:10447000FD2800E010E0C501B40120E030EA4FE77C
:1044800055E40E94182C882314F001E010E0E02A83
:10449000F12A00E010E0C501B40120E030EA4FE766
:1044A00055EC0E945F2A181614F001E010E00E2966
:1044B0001F29FF2469817A818B819C8120E030EA69
:1044C0004FE755E40E94182C882314F0FF24F3943E
:1044D000EE2469817A818B819C8120E030EA4FE76C
:1044E00055EC0E945F2A181614F0EE24E394FE287F
:1044F0008F2D90E0082B192B012B09F45DC0D10101
:1045000013968D919C91149780369105A9F181366F
:1045100091054CF48032910509F442C08034910534
:1045200009F04AC033C0803A910591F0803C910572
:1045300029F08038910509F03FC014C0C10160EE38
:1045400070E00E94FC2082EB99E062E072E031C0F2
:10455000C10160EC70E00E94FC2082EB99E06CE10C
:1045600072E027C0C10160EA70E00E94FC2082EB8B
:1045700099E066E372E01DC0C10160E870E00E944E
:10458000FC2082EB99E060E572E013C0C10160E6B7
:1045900070E00E94FC2082EB99E06AE672E009C0BC
:1045A000C10160E470E00E94FC2082EB99E064E8C5
:1045B00072E00E94020EECCE84E290E0A0E0B0E057
:1045C000F20180839183A283B383F1018589968967
:1045D000A789B08DF20184839583A683B78382E097
:1045E00090E0A0E0B0E080879187A287B3870E9427
:1045F000BD11D20150966D937D938D939C935397EB
:10460000E090BA02F090BB020091BC021091BD0292
:10461000F1016581768187819085A80197010E94CB
:10462000662A20E030E048EC52E40E94232CD201BC
:1046300054966D937D938D939C935797F10161856B
:10464000728583859485A80197010E94662A20E0DF
:1046500030E048EC52E40E94232CD20158966D932E
:104660007D938D939C935B97F10165857685878516
:1046700090892091BE023091BF024091C0025091BA
:10468000C1020E94662A20E030E048EC52E40E9419
:10469000232CD2015C966D937D938D939C935F97B1
:1046A0000F900F900F900F90CF91DF911F910F916E
:1046B000FF90EF90DF90CF90BF90AF909F908F9042
:1046C0007F906F905F904F903F902F900895CF9381
:1046D000DF93EC0182EA9AE00E942527CE016EE189
:1046E00042E020E00E94E120CE016EE140E00E9425
:1046F000BD20803111F080E006C0CE0160E270E0A4
:104700000E94FC2081E0DF91CF910895EF92FF920B
:104710000F931F93E62EF42E02EA1AE0C8010E94BE
:104720004B26C8016F2D0E94CD26C8010E9410277C
:10473000C8016E2D41E00E942127C8010E945E261B
:10474000F82EC8010E9410278F2D1F910F91FF9006
:10475000EF900895EF92FF920F931F93F42EE22EA5
:1047600002EA1AE0C8010E944B26C8016F2D0E9480
:10477000CD26C8016E2D0E94CD26C8010E941027AB
:104780001F910F91FF90EF9008950F931F938C014D
:1047900082EA9AE00E942527C80169E140E227E504
:1047A0000E94AA23C80169E140E20E94862390E0AA
:1047B000873509F491E0892F1F910F91089508958D
:1047C0002F923F924F925F926F927F928F929F9221
:1047D000AF92BF92CF92DF92EF92FF920F931F930F
:1047E000DF93CF93CDB7DEB76C970FB6F894DEBFEB
:1047F0000FBECDBF4B015E8B4D8B388F2F8B61155C
:10480000710509F46FC1452B09F46CC1232B09F420
:1048100069C1DB0158966D917D918D919C915B975B
:104820005C962D913D914D915C915F970E940C2A71
:104830007B018C01EF89F88D608371838283938380
:104840000E94862C5B016C01C801B7010E94632A9B
:104850007B018C01C601B501D40158962D913D9183
:104860004D915C915B970E94232C5B016C01C80108
:10487000B701F401248D358D468D578D0E94232C70
:104880009B01AC01C601B5010E9499297B018C01F5
:1048900020E030E040E050E00E945F2A8823F9F4F5
:1048A000D40154966D917D918D919C91579720E004
:1048B00030E040E050E00E94182C18162CF08BEDF0
:1048C0009FE0A9ECBFEB04C08BED9FE0A9ECBFE338
:1048D000EF89F88D84839583A683B78314C0D401B0
:1048E00054966D917D918D919C9157979058A80108
:1048F00097010E94662A0E94372AEF89F88D648307
:10490000758386839783AD89BE895C968D919D91D1
:104910000D90BC91A02D898B9A8BAB8BBC8BEF89B2
:10492000F88DA080B180C280D380C601B5010E94FD
:10493000862C6D837E838F839887AD89BE89589638
:104940008D919D910D90BC91A02D8D879E87AF87F5
:10495000B88BC601B5010E94632A69837A838B8371
:104960009C83EF89F88D6480758086809780C40170
:10497000B3010E94632A1B012C01C401B3010E94F0
:10498000862C69877A878B879C8769897A898B8946
:104990009C892D813E814F8158850E94232C7B016B
:1049A0008C016D857E858F85988929813A814B811F
:1049B0005C810E94232C9B01AC01C801B7010E94BD
:1049C0009829698F7A8F8B8F9C8FC201B101AD8935
:1049D000BE8954962D913D914D915C9157970E94BF
:1049E000232C7B018C016D857E858F859889298597
:1049F0003A854B855C850E94232C2D813E814F8119
:104A000058850E94232C9B01AC01C801B7010E946C
:104A100099297B018C0169897A898B899C892985EF
:104A20003A854B855C850E94232C29813A814B81F4
:104A30005C810E94232C9B01AC01C801B7010E943C
:104A400099299B01AC01698D7A8D8B8D9C8D0E947B
:104A50000C2A7B018C01EF89F88D60877187828732
:104A60009387C601B50120E030E044E353E40E949F
:104A7000232C2BED3FE049E450E40E94662AAF89E5
:104A8000B88D6D937D938D939C931397C401B3015F
:104A900020E030E044E353E40E94232C2BED3FE080
:104AA00049E450E40E94662AEF89F88D6483758397
:104AB00086839783C801B70120E030E044E353E4E4
:104AC0000E94232C2BED3FE049E450E40E94662A2B
:104AD000AF89B88D18966D937D938D939C931B979A
:104AE00081E001C080E06C960FB6F894DEBF0FBE87
:104AF000CDBFCF91DF911F910F91FF90EF90DF908D
:104B0000CF90BF90AF909F908F907F906F905F906D
:104B10004F903F902F9008954F925F926F927F92A7
:104B20008F929F92AF92BF92CF92DF92EF92FF92BD
:104B30000F931F93CF93DF93EB012A01611571054A
:104B400009F497C04115510509F493C0AC8CBD8C94
:104B5000CE8CDF8CC601B50120E030E040E050E0B3
:104B60000E94182C87FF0BC00F2EF0E06F2EF0E094
:104B70007F2EF0E88F2EFFEB9F2EF02D0AC00F2E18
:104B8000F0E06F2EF0E07F2EF0E88F2EFFE39F2EF7
:104B9000F02D2C893D894E895F89CA01B9010E9497
:104BA000232C7B018C01C601B501A60195010E9451
:104BB000232C9B01AC01C801B7010E9499290E94D6
:104BC000902C9B01AC01688D798D8A8D9B8D0E9404
:104BD0000C2A20E030E044E353E40E94232C2BED28
:104BE0003FE049E450E40E94662AF2016083718349
:104BF00082839383288D398D4A8D5B8DEC8CFD8C5F
:104C00000E8D1F8DCA01B9010E94232C5B016C011E
:104C1000C801B701A80197010E94232C9B01AC0198
:104C2000C601B5010E9499290E94902C9B01AC01FC
:104C3000EC88FD880E891F89C401B3010E94232CD2
:104C40009B01AC01C801B7010E940C2A20E030E0B2
:104C500044E353E40E94232C2BED3FE049E450E46D
:104C60000E94662AF201648375838683978381E0BC
:104C700001C080E0DF91CF911F910F91FF90EF90E5
:104C8000DF90CF90BF90AF909F908F907F906F906C
:104C90005F904F90089581E08093A10A60937E0A0F
:104CA00010929F0A1092A00A089520917D0A30E088
:104CB00080917C0A281B3109C901089540917C0A22
:104CC00080917D0A481718F02FEF3FEF0AC0E42FBC
:104CD000F0E0E45AF54F8081282F30E04F5F409399
:104CE0007C0AC9010895E0917C0A80917D0AE81749
:104CF00018F0EFEFFFEF06C0F0E0E45AF54F8081C7
:104D0000E82FF0E0CF01089508951092A50A1092BF
:104D1000A40A88EE93E0A0E0B0E08093A60A909306
:104D2000A70AA093A80AB093A90A84E294E09093FA
:104D3000A30A8093A20A0895CF92DF92EF92FF9286
:104D40000F931F93CF93DF937C016B018A018091B6
:104D5000A10A8823A1F0C0E0D0E00DC0D701ED91F9
:104D6000FC91D601AC0FBD1F0190F081E02DC70171
:104D70006C9109952196C017D10780F304C0CB012F
:104D8000642F0E94CE27C801DF91CF911F910F9110
:104D9000FF90EF90DF90CF900895DF93CF930F9225
:104DA000CDB7DEB7FC0169838091A10A8823C9F0E1
:104DB0008091A00A803238F081E090E09383828372
:104DC00020E030E015C080919F0AE82FF0E0E15824
:104DD000F54F998190838F5F80939F0A8093A00AFB
:104DE00005C0CE01019661E00E94CE2721E030E0AF
:104DF000C9010F90CF91DF9108950F93062F8091F5
:104E00007E0A6FE77AE04091A00A21E00E947927AC
:104E100010929F0A1092A00A1092A10A0F91089571
:104E200061E00E94FD260895413208F040E2862F9D
:104E30006CE57AE00E94302710927C0A80937D0A0C
:104E4000089521E00E941427089510927C0A109280
:104E50007D0A10929F0A1092A00A0E947A29089552
:104E6000382F413210F040E042C08091AE0A8823D2
:104E7000E1F791E09093AE0A2093B00A8FEF809310
:104E80001B0B1092D60A41504093D70A4F5F909364
:104E9000AF0A8091AF0A330F832B8093AF0A8091C2
:104EA000B10A813041F41092B10A8091AF0A809327
:104EB000BB0085EC01C085EE8093BC008091AE0AFA
:104EC0008130E1F38091D60A841710F44091D60A1C
:104ED00020E030E00AC0FB01E20FF31FD901AA5421
:104EE000B54F8C9180832F5F3F4F2417A0F3842F01
:104EF00008950F931F93582F122F413210F081E025
:104F00004AC08091AE0A8823E1F782E08093AE0A1E
:104F10000093B00A8FEF80931B0B1092D60A409338
:104F2000D70AA6EBBAE0FB0102C081918D938E2FC8
:104F3000861B8417D0F31092AF0A8091AF0A550FE9
:104F4000852B8093AF0A8091B10A813041F4109291
:104F5000B10A8091AF0A8093BB0085EC01C085EE59
:104F60008093BC00112321F08091AE0A8230E1F3DE
:104F700080911B0B8F3F11F480E00DC080911B0BC3
:104F8000803211F482E007C080911B0B803311F056
:104F900084E001C083E01F910F910895482F613292
:104FA00010F081E008958091AE0A843011F082E023
:104FB00008956093F90AA8EDBAE0842F9C01F901E5
:104FC00002C081918D938E2F841B8617D0F380E0D1
:104FD00008951F920F920FB60F9211242F933F93B3
:104FE0004F935F936F937F938F939F93AF93BF93F1
:104FF000EF93FF938091B90090E0887F90708036A6
:10500000910509F4F2C081369105CCF588329105FD
:1050100009F47BC089329105B4F48031910509F41B
:105020006FC0813191053CF4009709F447C108979E
:1050300009F04FC165C08831910509F466C08097B9
:1050400009F047C182C08034910509F4A4C08134BD
:10505000910544F48033910509F482C0C89709F0A2
:1050600038C189C08035910509F489C0883591051A
:1050700009F496C08834910509F02BC1AEC0883977
:10508000910509F413C189399105ECF4883791052C
:1050900009F4ABC0893791054CF48836910509F4C1
:1050A000A4C08037910509F014C19FC088389105CC
:1050B00009F4FCC08039910509F49DC08038910540
:1050C00009F007C198C0803B910509F4C6C0813B37
:1050D00091054CF4803A910509F49FC0883A9105F6
:1050E00009F0F7C0BAC0803C910509F4E3C0883CE0
:1050F000910509F4DFC0883B910509F0EAC0C2C000
:105100008091AF0A8093BB00CFC09091D60A809166
:10511000D70A981768F49091D60AE92FF0E0EA547C
:10512000F54F80818093BB009F5F9093D60ABCC0EF
:105130008091B00A882309F44BC085ED8093BC00B0
:105140008091BC0084FDFCCFC2C080E280931B0B29
:1051500085ED8093BC008091BC0084FDFCCFB7C07E
:1051600080E380931B0B85ED8093BC008091BC0095
:1051700084FDFCCFACC088E380931B0B9BC0809167
:10518000D60A9091BB00E82FF0E0EA54F54F9083E7
:105190008F5F8093D60A9091D60A8091D70A82C0F9
:1051A0008091D60A9091BB00E82FF0E0EA54F54FC9
:1051B00090838F5F8093D60A8091B00A882341F054
:1051C00085ED8093BC008091BC0084FDFCCF7FC046
:1051D00081E08093B10A84EA6EC085ED8093BC00C3
:1051E0008091BC0084FDFCCF72C083E08093AE0A46
:1051F00010921A0B59C080911A0B803208F056C0D9
:1052000080911A0B9091BB00E82FF0E0E650F54F2B
:1052100090838F5F80931A0B47C080911A0B803266
:1052200030F4E0911A0BF0E0E650F54F108285ED76
:105230008093BC008091BC0084FDFCCF1092AE0A2C
:1052400060911A0BE091B40AF091B50A8AEF9AE0E6
:1052500070E0099510921A0B2DC084E08093AE0A7D
:105260001092F80A1092F90AE091B20AF091B30A8A
:1052700009958091F90A882329F481E08093F90A3D
:105280001092D80A9091F80AE92FF0E0E852F54F11
:1052900080818093BB009F5F9093F80A9091F80AF9
:1052A0008091F90A981710F485EC01C085E8809385
:1052B000BC000FC085EC8093BC0009C010921B0B92
:1052C00085ED8093BC008091BC0084FDFCCF1092E2
:1052D000AE0AFF91EF91BF91AF919F918F917F9116
:1052E0006F915F914F913F912F910F900FBE0F9053
:1052F0001F9018951092AE0A81E08093B00A109228
:10530000B10A82E061E00E942F1E83E061E00E940A
:105310002F1EE9EBF0E080818E7F808380818D7F7E
:10532000808388E48093B80085E48093BC0008956E
:105330005058BB27AA270ED030C2F0D130F0F5D19B
:1053400020F031F49F3F11F41EF4C0C10EF4E0953B
:10535000E7FBB6C1E92F43D280F3BA1762077307A0
:105360008407950718F071F49EF55BC20EF4E09582
:105370000B2EBA2FA02D0B01B90190010C01CA010F
:10538000A0011124FF27591B99F0593F50F4503EBA
:1053900068F11A16F040A22F232F342F4427585FAC
:1053A000F3CF469537952795A795F0405395C9F7C4
:1053B0007EF41F16BA0B620B730B840BBAF091507C
:1053C000A1F0FF0FBB1F661F771F881FC2F70EC01B
:1053D000BA0F621F731F841F48F4879577956795EE
:1053E000B795F7959E3F08F0B3CF9395880F08F0D7
:1053F0009927EE0F97958795089590D158F080E8FA
:1054000091E009F49EEF91D128F040E851E059F481
:105410005EEF09C05BC105C2E92FE078E0D168F317
:10542000092E052AC1F3261737074807590738F010
:105430000E2E07F8E02569F0E025E0640AC0EF636E
:1054400007F8009407FADB01B9019D01DC01CA01EC
:10545000AD01EF934AD0A1D10AD05F91552331F02D
:105460002BED3FE049E450FD49EC63CF0895DF9315
:10547000DD27B92FBF7740E85FE316161706480708
:105480005B0710F4D92FD8D19F938F937F936F939D
:1054900091D2ECEAF0E01DD180D12F913F914F9154
:1054A0005F91DDD1DD2349F09058A2EA2AED3FE07B
:1054B00049EC5FE3D0785D274DDFDF916EC1DCD032
:1054C00008F481E0089539D1E39578C10CD065C125
:1054D0002CD140F023D130F021F45F3F19F0F0C01F
:1054E0005111A0C1F3C07BD198F39923C9F355237F
:1054F000B1F3951B550BBB27AA27621773078407C7
:1055000038F09F5F5F4F220F331F441FAA1FA9F37C
:1055100033D00E2E3AF0E0E830D091505040E6956E
:10552000001CCAF729D0FE2F27D0660F771F881FCF
:10553000BB1F261737074807AB07B0E809F0BB0BBE
:10554000802DBF01FF2793585F4F2AF09E3F5105E2
:1055500068F0B6C067C15F3FECF3983EDCF3869518
:1055600077956795B795F7959F5FC9F7880F911D58
:105570009695879597F90895E1E0660F771F881F44
:10558000BB1F621773078407BA0720F0621B730BF7
:10559000840BBA0BEE1F88F7E095089504D0689449
:1055A000B11140C1089523D188F09F5790F0B92FD1
:1055B0009927B751A0F0D1F0660F771F881F991F68
:1055C0001AF0BA95C9F712C0B13081F02AD1B1E012
:1055D000089527C1672F782F8827B85F39F0B93F22
:1055E000CCF3869577956795B395D9F73EF490956A
:1055F0008095709561957F4F8F4F9F4F0895E894E8
:1056000009C097FB3EF490958095709561957F4F0A
:105610008F4F9F4F9923A9F0F92F96E9BB279395B8
:10562000F695879577956795B795F111F8CFFAF4C8
:10563000BB0F11F460FF1BC06F5F7F4F8F4F9F4FF9
:1056400016C0882311F096E911C0772321F09EE857
:10565000872F762F05C0662371F096E8862F70E0BD
:1056600060E02AF09A95660F771F881FDAF7880F97
:105670009695879597F90895990F0008550FAA0BED
:10568000E0E8FEEF16161706E807F907C0F0121655
:105690001306E407F50798F0621B730B840B950B58
:1056A00039F40A2661F0232B242B252B21F40895AD
:1056B0000A2609F4A140A6958FEF811D811D08954A
:1056C00097F99F6780E870E060E008959FEF80ECB5
:1056D0000895DF93CF931F930F93FF92EF92DF9282
:1056E0007B018C01689405C0DA2EEF01B8D0FE0171
:1056F000E894A5912591359145915591AEF3EF012F
:1057000029DEFE019701A801DA9479F7DF90EF9086
:10571000FF900F911F91CF91DF91089500240A947B
:105720001616170618060906089500240A9412167C
:105730001306140605060895C9CF59D0E8F3E89476
:10574000EFEFBB273FE048EC5FE76B3D7307840753
:10575000950708F1FF279F57B25A6A4D7F40894C41
:10576000F04032F4BE556542704F8643FF4F0894B7
:10577000EE1F915030F0BB0F661F771F881FFF1F71
:10578000EBCF9EE7882332F0BB0F661F771F881F81
:105790009A95C1F79395E09514C1092E0394000CD6
:1057A00011F4882352F0BB0F40F4BF2B11F460FFBB
:1057B00004C06F5F7F4F8F4F9F4F0895EF93E0FFBF
:1057C00006C0A2EA2AED3FE049EC5FEBC3DDE5DF6E
:1057D0000F90039401FC9058E9EDF0E009C157FDEA
:1057E0009058440F551F59F05F3F71F04795880F4F
:1057F00097FB991F61F09F3F79F0879508951216E6
:1058000013061406551FF2CF4695F1DF08C0161691
:1058100017061806991FF1CF869571056105089442
:105820000895E894BB2766277727CB0197F9089559
:1058300023DF08F48FEF08959B01AC0160E070E076
:1058400080E89FE343CE0BD0A8CF68DF28F06DDF60
:1058500018F0952309F034CF39CF1124E3CFBFDFFF
:10586000A0F3959FD1F3950F50E0551F629FF00173
:10587000729FBB27F00DB11D639FAA27F00DB11DCC
:10588000AA1F649F6627B00DA11D661F829F222755
:10589000B00DA11D621F739FB00DA11D621F839FDC
:1058A000A00D611D221F749F3327A00D611D231FB2
:1058B000849F600D211D822F762F6A2F11249F5700
:1058C00050408AF0E1F088234AF0EE0FFF1FBB1F23
:1058D000661F771F881F91505040A9F79E3F5105C2
:1058E00070F0EECE9FCF5F3FECF3983EDCF38695F1
:1058F00077956795B795F795E7959F5FC1F7FE2B6D
:10590000880F911D9695879597F908959F9315DFB8
:105910000F9007FCEE5F52CF11F40EF4D7CE51C0BA
:1059200066DFD0F39923D9F3CEF39F57550B87FF4A
:1059300058D056959795B0E020F4660F771F881FD2
:10594000BB1F1F930F9300249001A0018001F00161
:10595000A0E80E0F1F1F0A1E511D601B710B80094E
:10596000B50B48F4600F711F801DB51F0E1B1F0B78
:105970000A0A510907C02E0F3F1F4A1F0E0F1F1F93
:105980000A1E511D660F771F881FBB1FA695F7952E
:10599000E795F8F60617170708065B07211D311D66
:1059A000411D0F911F91B901842F9158880F969531
:1059B000879508959B01AC0146CF5EDE880B990B5D
:1059C00008959F3F49F0915028F486957795679503
:1059D000B7959F5F80389F4F880F9695879597F969
:1059E000089591505040660F771F881FD2F7089591
:1059F0009F938F937F936F93FF93EF939B01AC01E2
:105A000022DFEF91FF9165DE2F913F914F915F91E2
:105A10001ACF629FD001739FF001829FE00DF11DAC
:105A2000649FE00DF11D929FF00D839FF00D749F18
:105A3000F00D659FF00D9927729FB00DE11DF91FC4
:105A4000639FB00DE11DF91FBD01CF011124089521
:105A5000991B79E004C0991F961708F0961B881FC0
:105A60007A95C9F780950895AA1BBB1B51E107C021
:105A7000AA1FBB1FA617B70710F0A61BB70B881FDE
:105A8000991F5A95A9F780959095BC01CD0108956D
:105A900097FB092E07260AD077FD04D0E5DF06D054
:105AA00000201AF4709561957F4F0895F6F7909550
:105AB00081959F4F0895A1E21A2EAA1BBB1BFD01E1
:105AC0000DC0AA1FBB1FEE1FFF1FA217B307E407DD
:105AD000F50720F0A21BB30BE40BF50B661F771F35
